{
  "_format": "hh-sol-artifact-1",
  "contractName": "NFTatorNFTMarketplace",
  "sourceName": "contracts/NFTatorNFTMarketplace.sol",
  "abi": [
    {
      "inputs": [],
      "stateMutability": "nonpayable",
      "type": "constructor"
    },
    {
      "anonymous": false,
      "inputs": [
        {
          "indexed": true,
          "internalType": "address",
          "name": "owner",
          "type": "address"
        },
        {
          "indexed": true,
          "internalType": "address",
          "name": "approved",
          "type": "address"
        },
        {
          "indexed": true,
          "internalType": "uint256",
          "name": "tokenId",
          "type": "uint256"
        }
      ],
      "name": "Approval",
      "type": "event"
    },
    {
      "anonymous": false,
      "inputs": [
        {
          "indexed": true,
          "internalType": "address",
          "name": "owner",
          "type": "address"
        },
        {
          "indexed": true,
          "internalType": "address",
          "name": "operator",
          "type": "address"
        },
        {
          "indexed": false,
          "internalType": "bool",
          "name": "approved",
          "type": "bool"
        }
      ],
      "name": "ApprovalForAll",
      "type": "event"
    },
    {
      "anonymous": false,
      "inputs": [
        {
          "indexed": false,
          "internalType": "uint256",
          "name": "_fromTokenId",
          "type": "uint256"
        },
        {
          "indexed": false,
          "internalType": "uint256",
          "name": "_toTokenId",
          "type": "uint256"
        }
      ],
      "name": "BatchMetadataUpdate",
      "type": "event"
    },
    {
      "anonymous": false,
      "inputs": [
        {
          "indexed": false,
          "internalType": "uint256",
          "name": "_tokenId",
          "type": "uint256"
        }
      ],
      "name": "MetadataUpdate",
      "type": "event"
    },
    {
      "anonymous": false,
      "inputs": [
        {
          "indexed": true,
          "internalType": "address",
          "name": "from",
          "type": "address"
        },
        {
          "indexed": true,
          "internalType": "address",
          "name": "to",
          "type": "address"
        },
        {
          "indexed": true,
          "internalType": "uint256",
          "name": "tokenId",
          "type": "uint256"
        }
      ],
      "name": "Transfer",
      "type": "event"
    },
    {
      "inputs": [
        {
          "internalType": "uint256",
          "name": "_tokenId",
          "type": "uint256"
        }
      ],
      "name": "BuyNftItem",
      "outputs": [],
      "stateMutability": "payable",
      "type": "function"
    },
    {
      "inputs": [
        {
          "internalType": "string",
          "name": "_tokenURI",
          "type": "string"
        },
        {
          "internalType": "uint256",
          "name": "_Nftprice",
          "type": "uint256"
        }
      ],
      "name": "CreateToken",
      "outputs": [
        {
          "internalType": "uint256",
          "name": "",
          "type": "uint256"
        }
      ],
      "stateMutability": "nonpayable",
      "type": "function"
    },
    {
      "inputs": [],
      "name": "FetchUnsoldNftsItems",
      "outputs": [
        {
          "components": [
            {
              "internalType": "uint256",
              "name": "tokenId",
              "type": "uint256"
            },
            {
              "internalType": "address payable",
              "name": "seller",
              "type": "address"
            },
            {
              "internalType": "address payable",
              "name": "owner",
              "type": "address"
            },
            {
              "internalType": "uint256",
              "name": "price",
              "type": "uint256"
            },
            {
              "internalType": "bool",
              "name": "sold",
              "type": "bool"
            }
          ],
          "internalType": "struct NFTatorNFTMarketplace.MarketItem[]",
          "name": "",
          "type": "tuple[]"
        }
      ],
      "stateMutability": "view",
      "type": "function"
    },
    {
      "inputs": [
        {
          "internalType": "uint256",
          "name": "",
          "type": "uint256"
        }
      ],
      "name": "MarketItems",
      "outputs": [
        {
          "internalType": "uint256",
          "name": "tokenId",
          "type": "uint256"
        },
        {
          "internalType": "address payable",
          "name": "seller",
          "type": "address"
        },
        {
          "internalType": "address payable",
          "name": "owner",
          "type": "address"
        },
        {
          "internalType": "uint256",
          "name": "price",
          "type": "uint256"
        },
        {
          "internalType": "bool",
          "name": "sold",
          "type": "bool"
        }
      ],
      "stateMutability": "view",
      "type": "function"
    },
    {
      "inputs": [
        {
          "internalType": "uint256",
          "name": "_tokenId",
          "type": "uint256"
        },
        {
          "internalType": "uint256",
          "name": "_Nftprice",
          "type": "uint256"
        }
      ],
      "name": "ReListNft",
      "outputs": [],
      "stateMutability": "nonpayable",
      "type": "function"
    },
    {
      "inputs": [
        {
          "internalType": "address",
          "name": "to",
          "type": "address"
        },
        {
          "internalType": "uint256",
          "name": "tokenId",
          "type": "uint256"
        }
      ],
      "name": "approve",
      "outputs": [],
      "stateMutability": "nonpayable",
      "type": "function"
    },
    {
      "inputs": [
        {
          "internalType": "address",
          "name": "owner",
          "type": "address"
        }
      ],
      "name": "balanceOf",
      "outputs": [
        {
          "internalType": "uint256",
          "name": "",
          "type": "uint256"
        }
      ],
      "stateMutability": "view",
      "type": "function"
    },
    {
      "inputs": [],
      "name": "fetchMyNFTs",
      "outputs": [
        {
          "components": [
            {
              "internalType": "uint256",
              "name": "tokenId",
              "type": "uint256"
            },
            {
              "internalType": "address payable",
              "name": "seller",
              "type": "address"
            },
            {
              "internalType": "address payable",
              "name": "owner",
              "type": "address"
            },
            {
              "internalType": "uint256",
              "name": "price",
              "type": "uint256"
            },
            {
              "internalType": "bool",
              "name": "sold",
              "type": "bool"
            }
          ],
          "internalType": "struct NFTatorNFTMarketplace.MarketItem[]",
          "name": "",
          "type": "tuple[]"
        }
      ],
      "stateMutability": "view",
      "type": "function"
    },
    {
      "inputs": [
        {
          "internalType": "uint256",
          "name": "tokenId",
          "type": "uint256"
        }
      ],
      "name": "getApproved",
      "outputs": [
        {
          "internalType": "address",
          "name": "",
          "type": "address"
        }
      ],
      "stateMutability": "view",
      "type": "function"
    },
    {
      "inputs": [
        {
          "internalType": "address",
          "name": "owner",
          "type": "address"
        },
        {
          "internalType": "address",
          "name": "operator",
          "type": "address"
        }
      ],
      "name": "isApprovedForAll",
      "outputs": [
        {
          "internalType": "bool",
          "name": "",
          "type": "bool"
        }
      ],
      "stateMutability": "view",
      "type": "function"
    },
    {
      "inputs": [],
      "name": "name",
      "outputs": [
        {
          "internalType": "string",
          "name": "",
          "type": "string"
        }
      ],
      "stateMutability": "view",
      "type": "function"
    },
    {
      "inputs": [
        {
          "internalType": "uint256",
          "name": "tokenId",
          "type": "uint256"
        }
      ],
      "name": "ownerOf",
      "outputs": [
        {
          "internalType": "address",
          "name": "",
          "type": "address"
        }
      ],
      "stateMutability": "view",
      "type": "function"
    },
    {
      "inputs": [
        {
          "internalType": "address",
          "name": "from",
          "type": "address"
        },
        {
          "internalType": "address",
          "name": "to",
          "type": "address"
        },
        {
          "internalType": "uint256",
          "name": "tokenId",
          "type": "uint256"
        }
      ],
      "name": "safeTransferFrom",
      "outputs": [],
      "stateMutability": "nonpayable",
      "type": "function"
    },
    {
      "inputs": [
        {
          "internalType": "address",
          "name": "from",
          "type": "address"
        },
        {
          "internalType": "address",
          "name": "to",
          "type": "address"
        },
        {
          "internalType": "uint256",
          "name": "tokenId",
          "type": "uint256"
        },
        {
          "internalType": "bytes",
          "name": "data",
          "type": "bytes"
        }
      ],
      "name": "safeTransferFrom",
      "outputs": [],
      "stateMutability": "nonpayable",
      "type": "function"
    },
    {
      "inputs": [
        {
          "internalType": "address",
          "name": "operator",
          "type": "address"
        },
        {
          "internalType": "bool",
          "name": "approved",
          "type": "bool"
        }
      ],
      "name": "setApprovalForAll",
      "outputs": [],
      "stateMutability": "nonpayable",
      "type": "function"
    },
    {
      "inputs": [
        {
          "internalType": "bytes4",
          "name": "interfaceId",
          "type": "bytes4"
        }
      ],
      "name": "supportsInterface",
      "outputs": [
        {
          "internalType": "bool",
          "name": "",
          "type": "bool"
        }
      ],
      "stateMutability": "view",
      "type": "function"
    },
    {
      "inputs": [],
      "name": "symbol",
      "outputs": [
        {
          "internalType": "string",
          "name": "",
          "type": "string"
        }
      ],
      "stateMutability": "view",
      "type": "function"
    },
    {
      "inputs": [
        {
          "internalType": "uint256",
          "name": "tokenId",
          "type": "uint256"
        }
      ],
      "name": "tokenURI",
      "outputs": [
        {
          "internalType": "string",
          "name": "",
          "type": "string"
        }
      ],
      "stateMutability": "view",
      "type": "function"
    },
    {
      "inputs": [
        {
          "internalType": "address",
          "name": "from",
          "type": "address"
        },
        {
          "internalType": "address",
          "name": "to",
          "type": "address"
        },
        {
          "internalType": "uint256",
          "name": "tokenId",
          "type": "uint256"
        }
      ],
      "name": "transferFrom",
      "outputs": [],
      "stateMutability": "nonpayable",
      "type": "function"
    }
  ],
  "bytecode": "0x60806040523480156200001157600080fd5b506040518060400160405280600c81526020017f4e465461746f72204e46547300000000000000000000000000000000000000008152506040518060400160405280600381526020017f4e464e0000000000000000000000000000000000000000000000000000000000815250816000908051906020019062000096929190620000f9565b508060019080519060200190620000af929190620000f9565b50505033600960006101000a81548173ffffffffffffffffffffffffffffffffffffffff021916908373ffffffffffffffffffffffffffffffffffffffff1602179055506200020e565b8280546200010790620001d8565b90600052602060002090601f0160209004810192826200012b576000855562000177565b82601f106200014657805160ff191683800117855562000177565b8280016001018555821562000177579182015b828111156200017657825182559160200191906001019062000159565b5b5090506200018691906200018a565b5090565b5b80821115620001a55760008160009055506001016200018b565b5090565b7f4e487b7100000000000000000000000000000000000000000000000000000000600052602260045260246000fd5b60006002820490506001821680620001f157607f821691505b60208210811415620002085762000207620001a9565b5b50919050565b613bb5806200021e6000396000f3fe6080604052600436106101145760003560e01c80636352211e116100a0578063b88d4fde11610064578063b88d4fde146103db578063c7610d5514610404578063c87b56dd1461042d578063e985e9c51461046a578063fb52115b146104a757610114565b80636352211e146102d057806370a082311461030d5780638284fe291461034a57806395d89b4114610387578063a22cb465146103b257610114565b8063095ea7b3116100e7578063095ea7b3146101e9578063202e37401461021257806323b872dd1461023d57806342842e0e14610266578063577256a41461028f57610114565b806301ffc9a7146101195780630331afce1461015657806306fdde0314610181578063081812fc146101ac575b600080fd5b34801561012557600080fd5b50610140600480360381019061013b91906127f7565b6104c3565b60405161014d919061283f565b60405180910390f35b34801561016257600080fd5b5061016b610524565b60405161017891906129da565b60405180910390f35b34801561018d57600080fd5b5061019661078d565b6040516101a39190612a95565b60405180910390f35b3480156101b857600080fd5b506101d360048036038101906101ce9190612ae3565b61081f565b6040516101e09190612b31565b60405180910390f35b3480156101f557600080fd5b50610210600480360381019061020b9190612b78565b610865565b005b34801561021e57600080fd5b5061022761097d565b60405161023491906129da565b60405180910390f35b34801561024957600080fd5b50610264600480360381019061025f9190612bb8565b610c6b565b005b34801561027257600080fd5b5061028d60048036038101906102889190612bb8565b610ccb565b005b34801561029b57600080fd5b506102b660048036038101906102b19190612ae3565b610ceb565b6040516102c7959493929190612c29565b60405180910390f35b3480156102dc57600080fd5b506102f760048036038101906102f29190612ae3565b610d6e565b6040516103049190612b31565b60405180910390f35b34801561031957600080fd5b50610334600480360381019061032f9190612c7c565b610df5565b6040516103419190612ca9565b60405180910390f35b34801561035657600080fd5b50610371600480360381019061036c9190612df9565b610ead565b60405161037e9190612ca9565b60405180910390f35b34801561039357600080fd5b5061039c610eef565b6040516103a99190612a95565b60405180910390f35b3480156103be57600080fd5b506103d960048036038101906103d49190612e81565b610f81565b005b3480156103e757600080fd5b5061040260048036038101906103fd9190612f62565b610f97565b005b34801561041057600080fd5b5061042b60048036038101906104269190612fe5565b610ff9565b005b34801561043957600080fd5b50610454600480360381019061044f9190612ae3565b6111aa565b6040516104619190612a95565b60405180910390f35b34801561047657600080fd5b50610491600480360381019061048c9190613025565b6112bd565b60405161049e919061283f565b60405180910390f35b6104c160048036038101906104bc9190612ae3565b611351565b005b6000634906490660e01b7bffffffffffffffffffffffffffffffffffffffffffffffffffffffff1916827bffffffffffffffffffffffffffffffffffffffffffffffffffffffff1916148061051d575061051c82611524565b5b9050919050565b606060006105326007611606565b905060006105406008611606565b61054a6007611606565b6105549190613094565b90506000808267ffffffffffffffff81111561057357610572612cce565b5b6040519080825280602002602001820160405280156105ac57816020015b61059961268b565b8152602001906001900390816105915790505b50905060005b84811015610782573073ffffffffffffffffffffffffffffffffffffffff16600a60006001846105e291906130c8565b815260200190815260200160002060020160009054906101000a900473ffffffffffffffffffffffffffffffffffffffff1673ffffffffffffffffffffffffffffffffffffffff16141561076f57600060018261063f91906130c8565b90506000600a60008381526020019081526020016000209050806040518060a0016040529081600082015481526020016001820160009054906101000a900473ffffffffffffffffffffffffffffffffffffffff1673ffffffffffffffffffffffffffffffffffffffff1673ffffffffffffffffffffffffffffffffffffffff1681526020016002820160009054906101000a900473ffffffffffffffffffffffffffffffffffffffff1673ffffffffffffffffffffffffffffffffffffffff1673ffffffffffffffffffffffffffffffffffffffff168152602001600382015481526020016004820160009054906101000a900460ff1615151515815250508486815181106107525761075161311e565b5b602002602001018190525060018561076a91906130c8565b945050505b808061077a9061314d565b9150506105b2565b508094505050505090565b60606000805461079c906131c5565b80601f01602080910402602001604051908101604052809291908181526020018280546107c8906131c5565b80156108155780601f106107ea57610100808354040283529160200191610815565b820191906000526020600020905b8154815290600101906020018083116107f857829003601f168201915b5050505050905090565b600061082a82611614565b6004600083815260200190815260200160002060009054906101000a900473ffffffffffffffffffffffffffffffffffffffff169050919050565b600061087082610d6e565b90508073ffffffffffffffffffffffffffffffffffffffff168373ffffffffffffffffffffffffffffffffffffffff1614156108e1576040517f08c379a00000000000000000000000000000000000000000000000000000000081526004016108d890613269565b60405180910390fd5b8073ffffffffffffffffffffffffffffffffffffffff1661090061165f565b73ffffffffffffffffffffffffffffffffffffffff16148061092f575061092e8161092961165f565b6112bd565b5b61096e576040517f08c379a0000000000000000000000000000000000000000000000000000000008152600401610965906132fb565b60405180910390fd5b6109788383611667565b505050565b6060600061098b6007611606565b905060008060005b83811015610a34573373ffffffffffffffffffffffffffffffffffffffff16600a60006001846109c391906130c8565b815260200190815260200160002060020160009054906101000a900473ffffffffffffffffffffffffffffffffffffffff1673ffffffffffffffffffffffffffffffffffffffff161415610a2157600183610a1e91906130c8565b92505b8080610a2c9061314d565b915050610993565b5060008267ffffffffffffffff811115610a5157610a50612cce565b5b604051908082528060200260200182016040528015610a8a57816020015b610a7761268b565b815260200190600190039081610a6f5790505b50905060005b84811015610c60573373ffffffffffffffffffffffffffffffffffffffff16600a6000600184610ac091906130c8565b815260200190815260200160002060020160009054906101000a900473ffffffffffffffffffffffffffffffffffffffff1673ffffffffffffffffffffffffffffffffffffffff161415610c4d576000600182610b1d91906130c8565b90506000600a60008381526020019081526020016000209050806040518060a0016040529081600082015481526020016001820160009054906101000a900473ffffffffffffffffffffffffffffffffffffffff1673ffffffffffffffffffffffffffffffffffffffff1673ffffffffffffffffffffffffffffffffffffffff1681526020016002820160009054906101000a900473ffffffffffffffffffffffffffffffffffffffff1673ffffffffffffffffffffffffffffffffffffffff1673ffffffffffffffffffffffffffffffffffffffff168152602001600382015481526020016004820160009054906101000a900460ff161515151581525050848681518110610c3057610c2f61311e565b5b6020026020010181905250600185610c4891906130c8565b945050505b8080610c589061314d565b915050610a90565b508094505050505090565b610c7c610c7661165f565b82611720565b610cbb576040517f08c379a0000000000000000000000000000000000000000000000000000000008152600401610cb29061338d565b60405180910390fd5b610cc68383836117b5565b505050565b610ce683838360405180602001604052806000815250610f97565b505050565b600a6020528060005260406000206000915090508060000154908060010160009054906101000a900473ffffffffffffffffffffffffffffffffffffffff16908060020160009054906101000a900473ffffffffffffffffffffffffffffffffffffffff16908060030154908060040160009054906101000a900460ff16905085565b600080610d7a83611aaf565b9050600073ffffffffffffffffffffffffffffffffffffffff168173ffffffffffffffffffffffffffffffffffffffff161415610dec576040517f08c379a0000000000000000000000000000000000000000000000000000000008152600401610de3906133f9565b60405180910390fd5b80915050919050565b60008073ffffffffffffffffffffffffffffffffffffffff168273ffffffffffffffffffffffffffffffffffffffff161415610e66576040517f08c379a0000000000000000000000000000000000000000000000000000000008152600401610e5d9061348b565b60405180910390fd5b600360008373ffffffffffffffffffffffffffffffffffffffff1673ffffffffffffffffffffffffffffffffffffffff168152602001908152602001600020549050919050565b6000610eb96007611aec565b6000610ec56007611606565b9050610ed13382611b02565b610edb8185611d20565b610ee58184611dcb565b8091505092915050565b606060018054610efe906131c5565b80601f0160208091040260200160405190810160405280929190818152602001828054610f2a906131c5565b8015610f775780601f10610f4c57610100808354040283529160200191610f77565b820191906000526020600020905b815481529060010190602001808311610f5a57829003601f168201915b5050505050905090565b610f93610f8c61165f565b8383611f4b565b5050565b610fa8610fa261165f565b83611720565b610fe7576040517f08c379a0000000000000000000000000000000000000000000000000000000008152600401610fde9061338d565b60405180910390fd5b610ff3848484846120b8565b50505050565b3373ffffffffffffffffffffffffffffffffffffffff16600a600084815260200190815260200160002060020160009054906101000a900473ffffffffffffffffffffffffffffffffffffffff1673ffffffffffffffffffffffffffffffffffffffff161461109d576040517f08c379a00000000000000000000000000000000000000000000000000000000081526004016110949061351d565b60405180910390fd5b6000600a600084815260200190815260200160002060040160006101000a81548160ff02191690831515021790555080600a60008481526020019081526020016000206003018190555033600a600084815260200190815260200160002060010160006101000a81548173ffffffffffffffffffffffffffffffffffffffff021916908373ffffffffffffffffffffffffffffffffffffffff16021790555030600a600084815260200190815260200160002060020160006101000a81548173ffffffffffffffffffffffffffffffffffffffff021916908373ffffffffffffffffffffffffffffffffffffffff16021790555061119b6008612114565b6111a63330846117b5565b5050565b60606111b582611614565b60006006600084815260200190815260200160002080546111d5906131c5565b80601f0160208091040260200160405190810160405280929190818152602001828054611201906131c5565b801561124e5780601f106112235761010080835404028352916020019161124e565b820191906000526020600020905b81548152906001019060200180831161123157829003601f168201915b50505050509050600061125f612170565b90506000815114156112755781925050506112b8565b6000825111156112aa578082604051602001611292929190613579565b604051602081830303815290604052925050506112b8565b6112b384612187565b925050505b919050565b6000600560008473ffffffffffffffffffffffffffffffffffffffff1673ffffffffffffffffffffffffffffffffffffffff16815260200190815260200160002060008373ffffffffffffffffffffffffffffffffffffffff1673ffffffffffffffffffffffffffffffffffffffff16815260200190815260200160002060009054906101000a900460ff16905092915050565b6000600a60008381526020019081526020016000206003015490506000600a600084815260200190815260200160002060010160009054906101000a900473ffffffffffffffffffffffffffffffffffffffff1690508134146113e9576040517f08c379a00000000000000000000000000000000000000000000000000000000081526004016113e0906135e9565b60405180910390fd5b33600a600085815260200190815260200160002060020160006101000a81548173ffffffffffffffffffffffffffffffffffffffff021916908373ffffffffffffffffffffffffffffffffffffffff1602179055506001600a600085815260200190815260200160002060040160006101000a81548160ff0219169083151502179055506000600a600085815260200190815260200160002060010160006101000a81548173ffffffffffffffffffffffffffffffffffffffff021916908373ffffffffffffffffffffffffffffffffffffffff1602179055506114cd6008611aec565b6114d83033856117b5565b8073ffffffffffffffffffffffffffffffffffffffff166108fc349081150290604051600060405180830381858888f1935050505015801561151e573d6000803e3d6000fd5b50505050565b60007f80ac58cd000000000000000000000000000000000000000000000000000000007bffffffffffffffffffffffffffffffffffffffffffffffffffffffff1916827bffffffffffffffffffffffffffffffffffffffffffffffffffffffff191614806115ef57507f5b5e139f000000000000000000000000000000000000000000000000000000007bffffffffffffffffffffffffffffffffffffffffffffffffffffffff1916827bffffffffffffffffffffffffffffffffffffffffffffffffffffffff1916145b806115ff57506115fe826121ef565b5b9050919050565b600081600001549050919050565b61161d81612259565b61165c576040517f08c379a0000000000000000000000000000000000000000000000000000000008152600401611653906133f9565b60405180910390fd5b50565b600033905090565b816004600083815260200190815260200160002060006101000a81548173ffffffffffffffffffffffffffffffffffffffff021916908373ffffffffffffffffffffffffffffffffffffffff160217905550808273ffffffffffffffffffffffffffffffffffffffff166116da83610d6e565b73ffffffffffffffffffffffffffffffffffffffff167f8c5be1e5ebec7d5bd14f71427d1e84f3dd0314c0f7b2291e5b200ac8c7c3b92560405160405180910390a45050565b60008061172c83610d6e565b90508073ffffffffffffffffffffffffffffffffffffffff168473ffffffffffffffffffffffffffffffffffffffff16148061176e575061176d81856112bd565b5b806117ac57508373ffffffffffffffffffffffffffffffffffffffff166117948461081f565b73ffffffffffffffffffffffffffffffffffffffff16145b91505092915050565b8273ffffffffffffffffffffffffffffffffffffffff166117d582610d6e565b73ffffffffffffffffffffffffffffffffffffffff161461182b576040517f08c379a00000000000000000000000000000000000000000000000000000000081526004016118229061367b565b60405180910390fd5b600073ffffffffffffffffffffffffffffffffffffffff168273ffffffffffffffffffffffffffffffffffffffff16141561189b576040517f08c379a00000000000000000000000000000000000000000000000000000000081526004016118929061370d565b60405180910390fd5b6118a8838383600161229a565b8273ffffffffffffffffffffffffffffffffffffffff166118c882610d6e565b73ffffffffffffffffffffffffffffffffffffffff161461191e576040517f08c379a00000000000000000000000000000000000000000000000000000000081526004016119159061367b565b60405180910390fd5b6004600082815260200190815260200160002060006101000a81549073ffffffffffffffffffffffffffffffffffffffff02191690556001600360008573ffffffffffffffffffffffffffffffffffffffff1673ffffffffffffffffffffffffffffffffffffffff168152602001908152602001600020600082825403925050819055506001600360008473ffffffffffffffffffffffffffffffffffffffff1673ffffffffffffffffffffffffffffffffffffffff16815260200190815260200160002060008282540192505081905550816002600083815260200190815260200160002060006101000a81548173ffffffffffffffffffffffffffffffffffffffff021916908373ffffffffffffffffffffffffffffffffffffffff160217905550808273ffffffffffffffffffffffffffffffffffffffff168473ffffffffffffffffffffffffffffffffffffffff167fddf252ad1be2c89b69c2b068fc378daa952ba7f163c4a11628f55a4df523b3ef60405160405180910390a4611aaa83838360016122a0565b505050565b60006002600083815260200190815260200160002060009054906101000a900473ffffffffffffffffffffffffffffffffffffffff169050919050565b6001816000016000828254019250508190555050565b600073ffffffffffffffffffffffffffffffffffffffff168273ffffffffffffffffffffffffffffffffffffffff161415611b72576040517f08c379a0000000000000000000000000000000000000000000000000000000008152600401611b6990613779565b60405180910390fd5b611b7b81612259565b15611bbb576040517f08c379a0000000000000000000000000000000000000000000000000000000008152600401611bb2906137e5565b60405180910390fd5b611bc960008383600161229a565b611bd281612259565b15611c12576040517f08c379a0000000000000000000000000000000000000000000000000000000008152600401611c09906137e5565b60405180910390fd5b6001600360008473ffffffffffffffffffffffffffffffffffffffff1673ffffffffffffffffffffffffffffffffffffffff16815260200190815260200160002060008282540192505081905550816002600083815260200190815260200160002060006101000a81548173ffffffffffffffffffffffffffffffffffffffff021916908373ffffffffffffffffffffffffffffffffffffffff160217905550808273ffffffffffffffffffffffffffffffffffffffff16600073ffffffffffffffffffffffffffffffffffffffff167fddf252ad1be2c89b69c2b068fc378daa952ba7f163c4a11628f55a4df523b3ef60405160405180910390a4611d1c6000838360016122a0565b5050565b611d2982612259565b611d68576040517f08c379a0000000000000000000000000000000000000000000000000000000008152600401611d5f90613877565b60405180910390fd5b80600660008481526020019081526020016000209080519060200190611d8f9291906126e8565b507ff8e1a15aba9398e019f0b49df1a4fde98ee17ae345cb5f6b5e2c27f5033e8ce782604051611dbf9190612ca9565b60405180910390a15050565b60008111611e0e576040517f08c379a0000000000000000000000000000000000000000000000000000000008152600401611e05906138e3565b60405180910390fd5b6040518060a001604052808381526020013373ffffffffffffffffffffffffffffffffffffffff1681526020013073ffffffffffffffffffffffffffffffffffffffff16815260200182815260200160001515815250600a60008481526020019081526020016000206000820151816000015560208201518160010160006101000a81548173ffffffffffffffffffffffffffffffffffffffff021916908373ffffffffffffffffffffffffffffffffffffffff16021790555060408201518160020160006101000a81548173ffffffffffffffffffffffffffffffffffffffff021916908373ffffffffffffffffffffffffffffffffffffffff1602179055506060820151816003015560808201518160040160006101000a81548160ff021916908315150217905550905050611f473330846117b5565b5050565b8173ffffffffffffffffffffffffffffffffffffffff168373ffffffffffffffffffffffffffffffffffffffff161415611fba576040517f08c379a0000000000000000000000000000000000000000000000000000000008152600401611fb19061394f565b60405180910390fd5b80600560008573ffffffffffffffffffffffffffffffffffffffff1673ffffffffffffffffffffffffffffffffffffffff16815260200190815260200160002060008473ffffffffffffffffffffffffffffffffffffffff1673ffffffffffffffffffffffffffffffffffffffff16815260200190815260200160002060006101000a81548160ff0219169083151502179055508173ffffffffffffffffffffffffffffffffffffffff168373ffffffffffffffffffffffffffffffffffffffff167f17307eab39ab6107e8899845ad3d59bd9653f200f220920489ca2b5937696c31836040516120ab919061283f565b60405180910390a3505050565b6120c38484846117b5565b6120cf848484846122a6565b61210e576040517f08c379a0000000000000000000000000000000000000000000000000000000008152600401612105906139e1565b60405180910390fd5b50505050565b60008160000154905060008111612160576040517f08c379a000000000000000000000000000000000000000000000000000000000815260040161215790613a4d565b60405180910390fd5b6001810382600001819055505050565b606060405180602001604052806000815250905090565b606061219282611614565b600061219c612170565b905060008151116121bc57604051806020016040528060008152506121e7565b806121c68461243d565b6040516020016121d7929190613579565b6040516020818303038152906040525b915050919050565b60007f01ffc9a7000000000000000000000000000000000000000000000000000000007bffffffffffffffffffffffffffffffffffffffffffffffffffffffff1916827bffffffffffffffffffffffffffffffffffffffffffffffffffffffff1916149050919050565b60008073ffffffffffffffffffffffffffffffffffffffff1661227b83611aaf565b73ffffffffffffffffffffffffffffffffffffffff1614159050919050565b50505050565b50505050565b60006122c78473ffffffffffffffffffffffffffffffffffffffff16612515565b15612430578373ffffffffffffffffffffffffffffffffffffffff1663150b7a026122f061165f565b8786866040518563ffffffff1660e01b81526004016123129493929190613ac2565b602060405180830381600087803b15801561232c57600080fd5b505af192505050801561235d57506040513d601f19601f8201168201806040525081019061235a9190613b23565b60015b6123e0573d806000811461238d576040519150601f19603f3d011682016040523d82523d6000602084013e612392565b606091505b506000815114156123d8576040517f08c379a00000000000000000000000000000000000000000000000000000000081526004016123cf906139e1565b60405180910390fd5b805181602001fd5b63150b7a0260e01b7bffffffffffffffffffffffffffffffffffffffffffffffffffffffff1916817bffffffffffffffffffffffffffffffffffffffffffffffffffffffff191614915050612435565b600190505b949350505050565b60606000600161244c84612538565b01905060008167ffffffffffffffff81111561246b5761246a612cce565b5b6040519080825280601f01601f19166020018201604052801561249d5781602001600182028036833780820191505090505b509050600082602001820190505b60011561250a578080600190039150507f3031323334353637383961626364656600000000000000000000000000000000600a86061a8153600a85816124f4576124f3613b50565b5b04945060008514156125055761250a565b6124ab565b819350505050919050565b6000808273ffffffffffffffffffffffffffffffffffffffff163b119050919050565b600080600090507a184f03e93ff9f4daa797ed6e38ed64bf6a1f0100000000000000008310612596577a184f03e93ff9f4daa797ed6e38ed64bf6a1f010000000000000000838161258c5761258b613b50565b5b0492506040810190505b6d04ee2d6d415b85acef810000000083106125d3576d04ee2d6d415b85acef810000000083816125c9576125c8613b50565b5b0492506020810190505b662386f26fc10000831061260257662386f26fc1000083816125f8576125f7613b50565b5b0492506010810190505b6305f5e100831061262b576305f5e100838161262157612620613b50565b5b0492506008810190505b612710831061265057612710838161264657612645613b50565b5b0492506004810190505b60648310612673576064838161266957612668613b50565b5b0492506002810190505b600a8310612682576001810190505b80915050919050565b6040518060a0016040528060008152602001600073ffffffffffffffffffffffffffffffffffffffff168152602001600073ffffffffffffffffffffffffffffffffffffffff168152602001600081526020016000151581525090565b8280546126f4906131c5565b90600052602060002090601f016020900481019282612716576000855561275d565b82601f1061272f57805160ff191683800117855561275d565b8280016001018555821561275d579182015b8281111561275c578251825591602001919060010190612741565b5b50905061276a919061276e565b5090565b5b8082111561278757600081600090555060010161276f565b5090565b6000604051905090565b600080fd5b600080fd5b60007fffffffff0000000000000000000000000000000000000000000000000000000082169050919050565b6127d48161279f565b81146127df57600080fd5b50565b6000813590506127f1816127cb565b92915050565b60006020828403121561280d5761280c612795565b5b600061281b848285016127e2565b91505092915050565b60008115159050919050565b61283981612824565b82525050565b60006020820190506128546000830184612830565b92915050565b600081519050919050565b600082825260208201905092915050565b6000819050602082019050919050565b6000819050919050565b61289981612886565b82525050565b600073ffffffffffffffffffffffffffffffffffffffff82169050919050565b60006128ca8261289f565b9050919050565b6128da816128bf565b82525050565b6128e981612824565b82525050565b60a0820160008201516129056000850182612890565b50602082015161291860208501826128d1565b50604082015161292b60408501826128d1565b50606082015161293e6060850182612890565b50608082015161295160808501826128e0565b50505050565b600061296383836128ef565b60a08301905092915050565b6000602082019050919050565b60006129878261285a565b6129918185612865565b935061299c83612876565b8060005b838110156129cd5781516129b48882612957565b97506129bf8361296f565b9250506001810190506129a0565b5085935050505092915050565b600060208201905081810360008301526129f4818461297c565b905092915050565b600081519050919050565b600082825260208201905092915050565b60005b83811015612a36578082015181840152602081019050612a1b565b83811115612a45576000848401525b50505050565b6000601f19601f8301169050919050565b6000612a67826129fc565b612a718185612a07565b9350612a81818560208601612a18565b612a8a81612a4b565b840191505092915050565b60006020820190508181036000830152612aaf8184612a5c565b905092915050565b612ac081612886565b8114612acb57600080fd5b50565b600081359050612add81612ab7565b92915050565b600060208284031215612af957612af8612795565b5b6000612b0784828501612ace565b91505092915050565b6000612b1b8261289f565b9050919050565b612b2b81612b10565b82525050565b6000602082019050612b466000830184612b22565b92915050565b612b5581612b10565b8114612b6057600080fd5b50565b600081359050612b7281612b4c565b92915050565b60008060408385031215612b8f57612b8e612795565b5b6000612b9d85828601612b63565b9250506020612bae85828601612ace565b9150509250929050565b600080600060608486031215612bd157612bd0612795565b5b6000612bdf86828701612b63565b9350506020612bf086828701612b63565b9250506040612c0186828701612ace565b9150509250925092565b612c1481612886565b82525050565b612c23816128bf565b82525050565b600060a082019050612c3e6000830188612c0b565b612c4b6020830187612c1a565b612c586040830186612c1a565b612c656060830185612c0b565b612c726080830184612830565b9695505050505050565b600060208284031215612c9257612c91612795565b5b6000612ca084828501612b63565b91505092915050565b6000602082019050612cbe6000830184612c0b565b92915050565b600080fd5b600080fd5b7f4e487b7100000000000000000000000000000000000000000000000000000000600052604160045260246000fd5b612d0682612a4b565b810181811067ffffffffffffffff82111715612d2557612d24612cce565b5b80604052505050565b6000612d3861278b565b9050612d448282612cfd565b919050565b600067ffffffffffffffff821115612d6457612d63612cce565b5b612d6d82612a4b565b9050602081019050919050565b82818337600083830152505050565b6000612d9c612d9784612d49565b612d2e565b905082815260208101848484011115612db857612db7612cc9565b5b612dc3848285612d7a565b509392505050565b600082601f830112612de057612ddf612cc4565b5b8135612df0848260208601612d89565b91505092915050565b60008060408385031215612e1057612e0f612795565b5b600083013567ffffffffffffffff811115612e2e57612e2d61279a565b5b612e3a85828601612dcb565b9250506020612e4b85828601612ace565b9150509250929050565b612e5e81612824565b8114612e6957600080fd5b50565b600081359050612e7b81612e55565b92915050565b60008060408385031215612e9857612e97612795565b5b6000612ea685828601612b63565b9250506020612eb785828601612e6c565b9150509250929050565b600067ffffffffffffffff821115612edc57612edb612cce565b5b612ee582612a4b565b9050602081019050919050565b6000612f05612f0084612ec1565b612d2e565b905082815260208101848484011115612f2157612f20612cc9565b5b612f2c848285612d7a565b509392505050565b600082601f830112612f4957612f48612cc4565b5b8135612f59848260208601612ef2565b91505092915050565b60008060008060808587031215612f7c57612f7b612795565b5b6000612f8a87828801612b63565b9450506020612f9b87828801612b63565b9350506040612fac87828801612ace565b925050606085013567ffffffffffffffff811115612fcd57612fcc61279a565b5b612fd987828801612f34565b91505092959194509250565b60008060408385031215612ffc57612ffb612795565b5b600061300a85828601612ace565b925050602061301b85828601612ace565b9150509250929050565b6000806040838503121561303c5761303b612795565b5b600061304a85828601612b63565b925050602061305b85828601612b63565b9150509250929050565b7f4e487b7100000000000000000000000000000000000000000000000000000000600052601160045260246000fd5b600061309f82612886565b91506130aa83612886565b9250828210156130bd576130bc613065565b5b828203905092915050565b60006130d382612886565b91506130de83612886565b9250827fffffffffffffffffffffffffffffffffffffffffffffffffffffffffffffffff0382111561311357613112613065565b5b828201905092915050565b7f4e487b7100000000000000000000000000000000000000000000000000000000600052603260045260246000fd5b600061315882612886565b91507fffffffffffffffffffffffffffffffffffffffffffffffffffffffffffffffff82141561318b5761318a613065565b5b600182019050919050565b7f4e487b7100000000000000000000000000000000000000000000000000000000600052602260045260246000fd5b600060028204905060018216806131dd57607f821691505b602082108114156131f1576131f0613196565b5b50919050565b7f4552433732313a20617070726f76616c20746f2063757272656e74206f776e6560008201527f7200000000000000000000000000000000000000000000000000000000000000602082015250565b6000613253602183612a07565b915061325e826131f7565b604082019050919050565b6000602082019050818103600083015261328281613246565b9050919050565b7f4552433732313a20617070726f76652063616c6c6572206973206e6f7420746f60008201527f6b656e206f776e6572206f7220617070726f76656420666f7220616c6c000000602082015250565b60006132e5603d83612a07565b91506132f082613289565b604082019050919050565b60006020820190508181036000830152613314816132d8565b9050919050565b7f4552433732313a2063616c6c6572206973206e6f7420746f6b656e206f776e6560008201527f72206f7220617070726f76656400000000000000000000000000000000000000602082015250565b6000613377602d83612a07565b91506133828261331b565b604082019050919050565b600060208201905081810360008301526133a68161336a565b9050919050565b7f4552433732313a20696e76616c696420746f6b656e2049440000000000000000600082015250565b60006133e3601883612a07565b91506133ee826133ad565b602082019050919050565b60006020820190508181036000830152613412816133d6565b9050919050565b7f4552433732313a2061646472657373207a65726f206973206e6f74206120766160008201527f6c6964206f776e65720000000000000000000000000000000000000000000000602082015250565b6000613475602983612a07565b915061348082613419565b604082019050919050565b600060208201905081810360008301526134a481613468565b9050919050565b7f4f6e6c79206974656d206f776e65722063616e20706572666f726d207468697360008201527f206f7065726174696f6e00000000000000000000000000000000000000000000602082015250565b6000613507602a83612a07565b9150613512826134ab565b604082019050919050565b60006020820190508181036000830152613536816134fa565b9050919050565b600081905092915050565b6000613553826129fc565b61355d818561353d565b935061356d818560208601612a18565b80840191505092915050565b60006135858285613548565b91506135918284613548565b91508190509392505050565b7f506c656173652070617920776861742073656c6c657220726571756972656400600082015250565b60006135d3601f83612a07565b91506135de8261359d565b602082019050919050565b60006020820190508181036000830152613602816135c6565b9050919050565b7f4552433732313a207472616e736665722066726f6d20696e636f72726563742060008201527f6f776e6572000000000000000000000000000000000000000000000000000000602082015250565b6000613665602583612a07565b915061367082613609565b604082019050919050565b6000602082019050818103600083015261369481613658565b9050919050565b7f4552433732313a207472616e7366657220746f20746865207a65726f2061646460008201527f7265737300000000000000000000000000000000000000000000000000000000602082015250565b60006136f7602483612a07565b91506137028261369b565b604082019050919050565b60006020820190508181036000830152613726816136ea565b9050919050565b7f4552433732313a206d696e7420746f20746865207a65726f2061646472657373600082015250565b6000613763602083612a07565b915061376e8261372d565b602082019050919050565b6000602082019050818103600083015261379281613756565b9050919050565b7f4552433732313a20746f6b656e20616c7265616479206d696e74656400000000600082015250565b60006137cf601c83612a07565b91506137da82613799565b602082019050919050565b600060208201905081810360008301526137fe816137c2565b9050919050565b7f45524337323155524953746f726167653a2055524920736574206f66206e6f6e60008201527f6578697374656e7420746f6b656e000000000000000000000000000000000000602082015250565b6000613861602e83612a07565b915061386c82613805565b604082019050919050565b6000602082019050818103600083015261389081613854565b9050919050565b7f596f75206861766520746f2070726f76696465206e6674207072696365000000600082015250565b60006138cd601d83612a07565b91506138d882613897565b602082019050919050565b600060208201905081810360008301526138fc816138c0565b9050919050565b7f4552433732313a20617070726f766520746f2063616c6c657200000000000000600082015250565b6000613939601983612a07565b915061394482613903565b602082019050919050565b600060208201905081810360008301526139688161392c565b9050919050565b7f4552433732313a207472616e7366657220746f206e6f6e20455243373231526560008201527f63656976657220696d706c656d656e7465720000000000000000000000000000602082015250565b60006139cb603283612a07565b91506139d68261396f565b604082019050919050565b600060208201905081810360008301526139fa816139be565b9050919050565b7f436f756e7465723a2064656372656d656e74206f766572666c6f770000000000600082015250565b6000613a37601b83612a07565b9150613a4282613a01565b602082019050919050565b60006020820190508181036000830152613a6681613a2a565b9050919050565b600081519050919050565b600082825260208201905092915050565b6000613a9482613a6d565b613a9e8185613a78565b9350613aae818560208601612a18565b613ab781612a4b565b840191505092915050565b6000608082019050613ad76000830187612b22565b613ae46020830186612b22565b613af16040830185612c0b565b8181036060830152613b038184613a89565b905095945050505050565b600081519050613b1d816127cb565b92915050565b600060208284031215613b3957613b38612795565b5b6000613b4784828501613b0e565b91505092915050565b7f4e487b7100000000000000000000000000000000000000000000000000000000600052601260045260246000fdfea2646970667358221220779fd99eb99bf17dd4f2e75b7a63ca0ccf4cd3fbcca729262574cdccea3cfe1364736f6c63430008090033",
  "linkReferences": {},
  "deployedLinkReferences": {}
}